{"abi":[{"type":"constructor","inputs":[],"stateMutability":"nonpayable"},{"type":"function","name":"balances","inputs":[{"name":"","type":"address","internalType":"address"}],"outputs":[{"name":"","type":"uint256","internalType":"uint256"}],"stateMutability":"view"},{"type":"function","name":"centralBank","inputs":[],"outputs":[{"name":"","type":"address","internalType":"address"}],"stateMutability":"view"},{"type":"function","name":"getBalance","inputs":[{"name":"bank","type":"address","internalType":"address"}],"outputs":[{"name":"","type":"uint256","internalType":"uint256"}],"stateMutability":"view"},{"type":"function","name":"initiatePayment","inputs":[{"name":"message","type":"tuple","internalType":"struct CBPRPaymentSystem.PaymentMessage","components":[{"name":"senderBank","type":"address","internalType":"address"},{"name":"recipientBank","type":"address","internalType":"address"},{"name":"amount","type":"uint256","internalType":"uint256"},{"name":"note","type":"string","internalType":"string"}]}],"outputs":[],"stateMutability":"nonpayable"},{"type":"event","name":"TransferConfirmed","inputs":[{"name":"senderBank","type":"address","indexed":true,"internalType":"address"},{"name":"recipientBank","type":"address","indexed":true,"internalType":"address"},{"name":"amount","type":"uint256","indexed":false,"internalType":"uint256"},{"name":"note","type":"string","indexed":false,"internalType":"string"}],"anonymous":false},{"type":"event","name":"TransferInitiated","inputs":[{"name":"senderBank","type":"address","indexed":true,"internalType":"address"},{"name":"recipientBank","type":"address","indexed":true,"internalType":"address"},{"name":"amount","type":"uint256","indexed":false,"internalType":"uint256"},{"name":"note","type":"string","indexed":false,"internalType":"string"}],"anonymous":false}],"bytecode":{"object":"0x6080604052348015600f57600080fd5b50600080546001600160a01b031916331790556104e9806100316000396000f3fe608060405234801561001057600080fd5b506004361061004c5760003560e01c806327e235e3146100515780635c8d2c65146100845780639a4a0fb214610099578063f8b2cb4f146100c4575b600080fd5b61007161005f36600461029b565b60016020526000908152604090205481565b6040519081526020015b60405180910390f35b61009761009236600461032d565b6100ed565b005b6000546100ac906001600160a01b031681565b6040516001600160a01b03909116815260200161007b565b6100716100d236600461029b565b6001600160a01b031660009081526001602052604090205490565b60408082015182516001600160a01b031660009081526001602052919091205410156101545760405162461bcd60e51b8152602060048201526012602482015271496e73756666696369656e742066756e647360701b604482015260640160405180910390fd5b60408082015182516001600160a01b031660009081526001602052918220805491929091610183908490610430565b90915550506040808201516020808401516001600160a01b0316600090815260019091529182208054919290916101bb908490610449565b9250508190555080602001516001600160a01b031681600001516001600160a01b03167fca5f3156de7a545e43b2d64f40d5d33c56025b48c087b3413a55f01416e2a3f18360400151846060015160405161021792919061045c565b60405180910390a380602001516001600160a01b031681600001516001600160a01b03167f69e0f3c8005af7f13cdd32593f81da184a34271f8a638b519c23aa902163efc38360400151846060015160405161027492919061045c565b60405180910390a350565b80356001600160a01b038116811461029657600080fd5b919050565b6000602082840312156102ad57600080fd5b6102b68261027f565b9392505050565b634e487b7160e01b600052604160045260246000fd5b6040516080810167ffffffffffffffff811182821017156102f6576102f66102bd565b60405290565b604051601f8201601f1916810167ffffffffffffffff81118282101715610325576103256102bd565b604052919050565b6000602080838503121561034057600080fd5b823567ffffffffffffffff8082111561035857600080fd5b908401906080828703121561036c57600080fd5b6103746102d3565b61037d8361027f565b815261038a84840161027f565b84820152604083013560408201526060830135828111156103aa57600080fd5b80840193505086601f8401126103bf57600080fd5b8235828111156103d1576103d16102bd565b6103e3601f8201601f191686016102fc565b925080835287858286010111156103f957600080fd5b80858501868501376000908301909401939093526060830152509392505050565b634e487b7160e01b600052601160045260246000fd5b818103818111156104435761044361041a565b92915050565b808201808211156104435761044361041a565b8281526000602060406020840152835180604085015260005b8181101561049157858101830151858201606001528201610475565b506000606082860101526060601f19601f83011685010192505050939250505056fea2646970667358221220d6efe09cb8d8b0d3834c8ccd7fba77699c726a52df967dbac2ac7143b64ec37a64736f6c63430008190033","linkReferences":{}},"methodIdentifiers":{"balances(address)":"27e235e3","centralBank()":"9a4a0fb2","getBalance(address)":"f8b2cb4f","initiatePayment((address,address,uint256,string))":"5c8d2c65"},"id":20}