{"abi":[{"type":"constructor","inputs":[],"stateMutability":"nonpayable"},{"type":"function","name":"addVerifier","inputs":[{"name":"_verifier","type":"address","internalType":"address"}],"outputs":[],"stateMutability":"nonpayable"},{"type":"function","name":"addWallet","inputs":[{"name":"_did","type":"string","internalType":"string"},{"name":"_wallet","type":"address","internalType":"address"}],"outputs":[],"stateMutability":"nonpayable"},{"type":"function","name":"bindWallets","inputs":[{"name":"_did","type":"string","internalType":"string"},{"name":"_wallets","type":"address[]","internalType":"address[]"}],"outputs":[],"stateMutability":"nonpayable"},{"type":"function","name":"deleteCertificate","inputs":[{"name":"_did","type":"string","internalType":"string"}],"outputs":[],"stateMutability":"nonpayable"},{"type":"function","name":"didToCertificate","inputs":[{"name":"","type":"string","internalType":"string"}],"outputs":[{"name":"did","type":"string","internalType":"string"},{"name":"timestamp","type":"uint256","internalType":"uint256"},{"name":"expireDate","type":"uint256","internalType":"uint256"},{"name":"verifier","type":"address","internalType":"address"}],"stateMutability":"view"},{"type":"function","name":"didToWallets","inputs":[{"name":"","type":"string","internalType":"string"},{"name":"","type":"uint256","internalType":"uint256"}],"outputs":[{"name":"","type":"address","internalType":"address"}],"stateMutability":"view"},{"type":"function","name":"generateCertificate","inputs":[{"name":"_did","type":"string","internalType":"string"},{"name":"_expireDate","type":"uint256","internalType":"uint256"}],"outputs":[],"stateMutability":"nonpayable"},{"type":"function","name":"owner","inputs":[],"outputs":[{"name":"","type":"address","internalType":"address"}],"stateMutability":"view"},{"type":"function","name":"removeVerifier","inputs":[{"name":"_verifier","type":"address","internalType":"address"}],"outputs":[],"stateMutability":"nonpayable"},{"type":"function","name":"removeWallet","inputs":[{"name":"_did","type":"string","internalType":"string"},{"name":"_wallet","type":"address","internalType":"address"}],"outputs":[],"stateMutability":"nonpayable"},{"type":"function","name":"verifiers","inputs":[{"name":"","type":"address","internalType":"address"}],"outputs":[{"name":"","type":"bool","internalType":"bool"}],"stateMutability":"view"},{"type":"function","name":"verifyCertificate","inputs":[{"name":"_did","type":"string","internalType":"string"}],"outputs":[{"name":"","type":"bool","internalType":"bool"}],"stateMutability":"view"},{"type":"event","name":"CertificateDeleted","inputs":[{"name":"did","type":"string","indexed":false,"internalType":"string"},{"name":"verifier","type":"address","indexed":false,"internalType":"address"}],"anonymous":false},{"type":"event","name":"CertificateGenerated","inputs":[{"name":"did","type":"string","indexed":false,"internalType":"string"},{"name":"verifier","type":"address","indexed":false,"internalType":"address"},{"name":"expireDate","type":"uint256","indexed":false,"internalType":"uint256"}],"anonymous":false},{"type":"event","name":"VerifierAdded","inputs":[{"name":"verifier","type":"address","indexed":false,"internalType":"address"}],"anonymous":false},{"type":"event","name":"VerifierRemoved","inputs":[{"name":"verifier","type":"address","indexed":false,"internalType":"address"}],"anonymous":false},{"type":"event","name":"WalletBound","inputs":[{"name":"did","type":"string","indexed":false,"internalType":"string"},{"name":"wallet","type":"address","indexed":false,"internalType":"address"}],"anonymous":false},{"type":"event","name":"WalletRemoved","inputs":[{"name":"did","type":"string","indexed":false,"internalType":"string"},{"name":"wallet","type":"address","indexed":false,"internalType":"address"}],"anonymous":false}],"bytecode":{"object":"0x6080604052348015600f57600080fd5b50600080546001600160a01b03191633179055611354806100316000396000f3fe608060405234801561001057600080fd5b50600436106100b45760003560e01c80638da5cb5b116100715780638da5cb5b1461016a5780639000b3d61461017d5780639088764014610190578063a67285ad146101b3578063ca2dfd0a146101c6578063f00a6277146101d957600080fd5b806302465329146100b95780630a0c1944146100ce578063276bf79e146100fe5780636c8244871461011157806381f6bf7d146101445780638b23d87514610157575b600080fd5b6100cc6100c7366004610de2565b6101ec565b005b6100e16100dc366004610eb3565b610317565b6040516001600160a01b0390911681526020015b60405180910390f35b6100cc61010c366004610ef8565b61035e565b61013461011f366004610f46565b60016020526000908152604090205460ff1681565b60405190151581526020016100f5565b6100cc610152366004610f68565b610469565b610134610165366004610f68565b61061e565b6000546100e1906001600160a01b031681565b6100cc61018b366004610f46565b610766565b6101a361019e366004610f68565b6107ec565b6040516100f59493929190610ff5565b6100cc6101c1366004610eb3565b6108b2565b6100cc6101d4366004610f46565b6109f8565b6100cc6101e7366004610ef8565b610a73565b3360009081526001602052604090205460ff166102245760405162461bcd60e51b815260040161021b9061102d565b60405180910390fd5b81336001600160a01b031660038260405161023f9190611074565b908152604051908190036020019020600301546001600160a01b0316146102785760405162461bcd60e51b815260040161021b90611090565b816002846040516102899190611074565b908152602001604051809103902090805190602001906102aa929190610c58565b5060005b8251811015610311577f6bf088cc51552f6098ba8ca6a8ea1fafdd54f4befe22ab013a7b5c2811bf0d47848483815181106102eb576102eb6110e2565b60200260200101516040516103019291906110f8565b60405180910390a16001016102ae565b50505050565b8151602081840181018051600282529282019185019190912091905280548290811061034257600080fd5b6000918252602090912001546001600160a01b03169150829050565b3360009081526001602052604090205460ff1661038d5760405162461bcd60e51b815260040161021b9061102d565b81336001600160a01b03166003826040516103a89190611074565b908152604051908190036020019020600301546001600160a01b0316146103e15760405162461bcd60e51b815260040161021b90611090565b6002836040516103f19190611074565b908152604051602091819003820181208054600181018255600091825292902090910180546001600160a01b0319166001600160a01b0385161790557f6bf088cc51552f6098ba8ca6a8ea1fafdd54f4befe22ab013a7b5c2811bf0d479061045c90859085906110f8565b60405180910390a1505050565b3360009081526001602052604090205460ff166104985760405162461bcd60e51b815260040161021b9061102d565b80336001600160a01b03166003826040516104b39190611074565b908152604051908190036020019020600301546001600160a01b0316146104ec5760405162461bcd60e51b815260040161021b90611090565b336001600160a01b03166003836040516105069190611074565b908152604051908190036020019020600301546001600160a01b0316146105955760405162461bcd60e51b815260206004820152603a60248201527f4f6e6c79207468652076657269666965722077686f206973737565642074686560448201527f2063657274696669636174652063616e2064656c657465206974000000000000606482015260840161021b565b6003826040516105a59190611074565b90815260405190819003602001902060006105c08282610cbd565b50600060018201819055600282015560030180546001600160a01b03191690556040517fafb7f41305114b69246ac9a80f786255d224b65087bb977d2944d8c3d8e2d91e9061061290849033906110f8565b60405180910390a15050565b6000806003836040516106319190611074565b908152602001604051809103902060405180608001604052908160008201805461065a90611122565b80601f016020809104026020016040519081016040528092919081815260200182805461068690611122565b80156106d35780601f106106a8576101008083540402835291602001916106d3565b820191906000526020600020905b8154815290600101906020018083116106b657829003601f168201915b505050918352505060018201546020820152600282015460408201526003909101546001600160a01b03908116606092830152908201519192501661071b5750600092915050565b60608101516001600160a01b031660009081526001602052604090205460ff166107485750600092915050565b806040015142111561075d5750600092915050565b50600192915050565b6000546001600160a01b031633146107905760405162461bcd60e51b815260040161021b9061115c565b6001600160a01b038116600081815260016020818152604092839020805460ff191690921790915590519182527f6d05492139c5ea989514a5d2150c028041e5c087e2a39967f67dc7d2655adb8191015b60405180910390a150565b805160208183018101805160038252928201919093012091528054819061081290611122565b80601f016020809104026020016040519081016040528092919081815260200182805461083e90611122565b801561088b5780601f106108605761010080835404028352916020019161088b565b820191906000526020600020905b81548152906001019060200180831161086e57829003601f168201915b5050505060018301546002840154600390940154929390929091506001600160a01b031684565b3360009081526001602052604090205460ff166108e15760405162461bcd60e51b815260040161021b9061102d565b42811161093a5760405162461bcd60e51b815260206004820152602160248201527f4578706972652064617465206d75737420626520696e207468652066757475726044820152606560f81b606482015260840161021b565b604080516080810182528381524260208201528082018390523360608201529051819060039061096b908690611074565b9081526040519081900360200190208151819061098890826111f3565b50602082015160018201556040808301516002830155606090920151600390910180546001600160a01b0319166001600160a01b03909216919091179055517fdaef0d32d1bd9ea4f2bbdaefa1a77bda3b79acf6943060a98fc12c546c6420979061045c908590339086906112b3565b6000546001600160a01b03163314610a225760405162461bcd60e51b815260040161021b9061115c565b6001600160a01b038116600081815260016020908152604091829020805460ff1916905590519182527f44a3cd4eb5cc5748f6169df057b1cb2ae4c383e87cd94663c430e095d4cba42491016107e1565b3360009081526001602052604090205460ff16610aa25760405162461bcd60e51b815260040161021b9061102d565b81336001600160a01b0316600382604051610abd9190611074565b908152604051908190036020019020600301546001600160a01b031614610af65760405162461bcd60e51b815260040161021b90611090565b6000600284604051610b089190611074565b9081526020016040518091039020905060005b8154811015610c5157836001600160a01b0316828281548110610b4057610b406110e2565b6000918252602090912001546001600160a01b031603610c495781548290610b6a906001906112e1565b81548110610b7a57610b7a6110e2565b9060005260206000200160009054906101000a90046001600160a01b0316828281548110610baa57610baa6110e2565b9060005260206000200160006101000a8154816001600160a01b0302191690836001600160a01b0316021790555081805480610be857610be8611308565b600082815260209020810160001990810180546001600160a01b03191690550190556040517f7c46adc7b92fdb5a10edaa02d6f10b3129df0765e78b105a65440c4bf014b10e90610c3c90879087906110f8565b60405180910390a1610c51565b600101610b1b565b5050505050565b828054828255906000526020600020908101928215610cad579160200282015b82811115610cad57825182546001600160a01b0319166001600160a01b03909116178255602090920191600190910190610c78565b50610cb9929150610cfa565b5090565b508054610cc990611122565b6000825580601f10610cd9575050565b601f016020900490600052602060002090810190610cf79190610cfa565b50565b5b80821115610cb95760008155600101610cfb565b634e487b7160e01b600052604160045260246000fd5b604051601f8201601f1916810167ffffffffffffffff81118282101715610d4e57610d4e610d0f565b604052919050565b600082601f830112610d6757600080fd5b813567ffffffffffffffff811115610d8157610d81610d0f565b610d94601f8201601f1916602001610d25565b818152846020838601011115610da957600080fd5b816020850160208301376000918101602001919091529392505050565b80356001600160a01b0381168114610ddd57600080fd5b919050565b60008060408385031215610df557600080fd5b823567ffffffffffffffff80821115610e0d57600080fd5b610e1986838701610d56565b9350602091508185013581811115610e3057600080fd5b8501601f81018713610e4157600080fd5b803582811115610e5357610e53610d0f565b8060051b9250610e64848401610d25565b8181529282018401928481019089851115610e7e57600080fd5b928501925b84841015610ea357610e9484610dc6565b82529285019290850190610e83565b8096505050505050509250929050565b60008060408385031215610ec657600080fd5b823567ffffffffffffffff811115610edd57600080fd5b610ee985828601610d56565b95602094909401359450505050565b60008060408385031215610f0b57600080fd5b823567ffffffffffffffff811115610f2257600080fd5b610f2e85828601610d56565b925050610f3d60208401610dc6565b90509250929050565b600060208284031215610f5857600080fd5b610f6182610dc6565b9392505050565b600060208284031215610f7a57600080fd5b813567ffffffffffffffff811115610f9157600080fd5b610f9d84828501610d56565b949350505050565b60005b83811015610fc0578181015183820152602001610fa8565b50506000910152565b60008151808452610fe1816020860160208601610fa5565b601f01601f19169290920160200192915050565b6080815260006110086080830187610fc9565b60208301959095525060408101929092526001600160a01b0316606090910152919050565b60208082526027908201527f4f6e6c7920612076657269666965722063616e20706572666f726d20746869736040820152661030b1ba34b7b760c91b606082015260800190565b60008251611086818460208701610fa5565b9190910192915050565b60208082526032908201527f4f6e6c79207468652061737369676e65642076657269666965722063616e207060408201527132b93337b936903a3434b99030b1ba34b7b760711b606082015260800190565b634e487b7160e01b600052603260045260246000fd5b60408152600061110b6040830185610fc9565b905060018060a01b03831660208301529392505050565b600181811c9082168061113657607f821691505b60208210810361115657634e487b7160e01b600052602260045260246000fd5b50919050565b60208082526026908201527f4f6e6c7920746865206f776e65722063616e20706572666f726d20746869732060408201526530b1ba34b7b760d11b606082015260800190565b601f8211156111ee576000816000526020600020601f850160051c810160208610156111cb5750805b601f850160051c820191505b818110156111ea578281556001016111d7565b5050505b505050565b815167ffffffffffffffff81111561120d5761120d610d0f565b6112218161121b8454611122565b846111a2565b602080601f831160018114611256576000841561123e5750858301515b600019600386901b1c1916600185901b1785556111ea565b600085815260208120601f198616915b8281101561128557888601518255948401946001909101908401611266565b50858210156112a35787850151600019600388901b60f8161c191681555b5050505050600190811b01905550565b6060815260006112c66060830186610fc9565b6001600160a01b039490941660208301525060400152919050565b8181038181111561130257634e487b7160e01b600052601160045260246000fd5b92915050565b634e487b7160e01b600052603160045260246000fdfea26469706673582212205ac60a68f21728d3d507bc23fa7bf14cb0711dc834e1a9cdeb5a6f42610f43c364736f6c63430008190033","linkReferences":{}},"methodIdentifiers":{"addVerifier(address)":"9000b3d6","addWallet(string,address)":"276bf79e","bindWallets(string,address[])":"02465329","deleteCertificate(string)":"81f6bf7d","didToCertificate(string)":"90887640","didToWallets(string,uint256)":"0a0c1944","generateCertificate(string,uint256)":"a67285ad","owner()":"8da5cb5b","removeVerifier(address)":"ca2dfd0a","removeWallet(string,address)":"f00a6277","verifiers(address)":"6c824487","verifyCertificate(string)":"8b23d875"},"id":20}