{"abi":[{"type":"constructor","inputs":[],"stateMutability":"nonpayable"},{"type":"function","name":"addIntermediate","inputs":[{"name":"_intermediate","type":"address","internalType":"address"}],"outputs":[],"stateMutability":"nonpayable"},{"type":"function","name":"didRegistry","inputs":[{"name":"","type":"string","internalType":"string"}],"outputs":[{"name":"merkleRoot","type":"string","internalType":"string"}],"stateMutability":"view"},{"type":"function","name":"getMerkleRoot","inputs":[{"name":"did","type":"string","internalType":"string"}],"outputs":[{"name":"","type":"string","internalType":"string"}],"stateMutability":"view"},{"type":"function","name":"intermediates","inputs":[{"name":"","type":"address","internalType":"address"}],"outputs":[{"name":"","type":"bool","internalType":"bool"}],"stateMutability":"view"},{"type":"function","name":"owner","inputs":[],"outputs":[{"name":"","type":"address","internalType":"address"}],"stateMutability":"view"},{"type":"function","name":"registerDID","inputs":[{"name":"did","type":"string","internalType":"string"}],"outputs":[],"stateMutability":"nonpayable"},{"type":"function","name":"removeIntermediate","inputs":[{"name":"_intermediate","type":"address","internalType":"address"}],"outputs":[],"stateMutability":"nonpayable"},{"type":"function","name":"updateMerkleRoot","inputs":[{"name":"did","type":"string","internalType":"string"},{"name":"newRoot","type":"string","internalType":"string"}],"outputs":[],"stateMutability":"nonpayable"},{"type":"event","name":"DIDRegistered","inputs":[{"name":"did","type":"string","indexed":true,"internalType":"string"}],"anonymous":false},{"type":"event","name":"IntermediateUpdated","inputs":[{"name":"intermediate","type":"address","indexed":true,"internalType":"address"},{"name":"added","type":"bool","indexed":false,"internalType":"bool"}],"anonymous":false},{"type":"event","name":"MerkleRootUpdated","inputs":[{"name":"did","type":"string","indexed":true,"internalType":"string"},{"name":"newRoot","type":"string","indexed":false,"internalType":"string"}],"anonymous":false}],"bytecode":{"object":"0x6080604052348015600f57600080fd5b50600180546001600160a01b03191633179055610938806100316000396000f3fe608060405234801561001057600080fd5b50600436106100885760003560e01c8063813a6f581161005b578063813a6f58146101115780638da5cb5b14610124578063994713af1461014f578063f9e2bb491461016257600080fd5b806334cf05d01461008d57806343f02989146100b65780634ed248fb146100c9578063570810e2146100fc575b600080fd5b6100a061009b36600461062d565b610175565b6040516100ad919061068e565b60405180910390f35b6100a06100c436600461062d565b61021e565b6100ec6100d73660046106c1565b60026020526000908152604090205460ff1681565b60405190151581526020016100ad565b61010f61010a36600461062d565b6102cf565b005b61010f61011f3660046106f1565b610387565b600154610137906001600160a01b031681565b6040516001600160a01b0390911681526020016100ad565b61010f61015d3660046106c1565b610489565b61010f6101703660046106c1565b610509565b805160208183018101805160008252928201919093012091528054819061019b90610755565b80601f01602080910402602001604051908101604052809291908181526020018280546101c790610755565b80156102145780601f106101e957610100808354040283529160200191610214565b820191906000526020600020905b8154815290600101906020018083116101f757829003601f168201915b5050505050905081565b6060600082604051610230919061078f565b908152604051908190036020019020805461024a90610755565b80601f016020809104026020016040519081016040528092919081815260200182805461027690610755565b80156102c35780601f10610298576101008083540402835291602001916102c3565b820191906000526020600020905b8154815290600101906020018083116102a657829003601f168201915b50505050509050919050565b6001546001600160a01b031633146103025760405162461bcd60e51b81526004016102f9906107ab565b60405180910390fd5b6040805180820182526000602082018181528252915190919061032690849061078f565b908152604051908190036020019020815181906103439082610842565b50506040516103549150829061078f565b604051908190038120907ff33dad7638394be78e889d9c8fef4ae0b61e1f55e344896dd80588ccecf58f5590600090a250565b3360009081526002602052604090205460ff1661040c5760405162461bcd60e51b815260206004820152603760248201527f4f6e6c7920616e20617574686f72697a656420696e7465726d6564696174652060448201527f63616e20706572666f726d207468697320616374696f6e00000000000000000060648201526084016102f9565b8060008360405161041d919061078f565b908152604051908190036020019020906104379082610842565b5081604051610446919061078f565b60405180910390207fead4db9308dd656bc1894767cb253d079660089239c322b6578d534ff5e5f0888260405161047d919061068e565b60405180910390a25050565b6001546001600160a01b031633146104b35760405162461bcd60e51b81526004016102f9906107ab565b6001600160a01b0381166000818152600260209081526040808320805460ff19169055519182527f94f8f41670b1eeb78098c9680891bc0b35a4c3aef261c6018119138d07cc9d3b91015b60405180910390a250565b6001546001600160a01b031633146105335760405162461bcd60e51b81526004016102f9906107ab565b6001600160a01b038116600081815260026020908152604091829020805460ff1916600190811790915591519182527f94f8f41670b1eeb78098c9680891bc0b35a4c3aef261c6018119138d07cc9d3b91016104fe565b634e487b7160e01b600052604160045260246000fd5b600082601f8301126105b157600080fd5b813567ffffffffffffffff808211156105cc576105cc61058a565b604051601f8301601f19908116603f011681019082821181831017156105f4576105f461058a565b8160405283815286602085880101111561060d57600080fd5b836020870160208301376000602085830101528094505050505092915050565b60006020828403121561063f57600080fd5b813567ffffffffffffffff81111561065657600080fd5b610662848285016105a0565b949350505050565b60005b8381101561068557818101518382015260200161066d565b50506000910152565b60208152600082518060208401526106ad81604085016020870161066a565b601f01601f19169190910160400192915050565b6000602082840312156106d357600080fd5b81356001600160a01b03811681146106ea57600080fd5b9392505050565b6000806040838503121561070457600080fd5b823567ffffffffffffffff8082111561071c57600080fd5b610728868387016105a0565b9350602085013591508082111561073e57600080fd5b5061074b858286016105a0565b9150509250929050565b600181811c9082168061076957607f821691505b60208210810361078957634e487b7160e01b600052602260045260246000fd5b50919050565b600082516107a181846020870161066a565b9190910192915050565b60208082526026908201527f4f6e6c7920746865206f776e65722063616e20706572666f726d20746869732060408201526530b1ba34b7b760d11b606082015260800190565b601f82111561083d576000816000526020600020601f850160051c8101602086101561081a5750805b601f850160051c820191505b8181101561083957828155600101610826565b5050505b505050565b815167ffffffffffffffff81111561085c5761085c61058a565b6108708161086a8454610755565b846107f1565b602080601f8311600181146108a5576000841561088d5750858301515b600019600386901b1c1916600185901b178555610839565b600085815260208120601f198616915b828110156108d4578886015182559484019460019091019084016108b5565b50858210156108f25787850151600019600388901b60f8161c191681555b5050505050600190811b0190555056fea2646970667358221220ded9a7f11deabfdc0cba75515e45396ed4f2960d9964753d3d2b0e24bdb5c5ab64736f6c63430008190033","linkReferences":{}},"methodIdentifiers":{"addIntermediate(address)":"f9e2bb49","didRegistry(string)":"34cf05d0","getMerkleRoot(string)":"43f02989","intermediates(address)":"4ed248fb","owner()":"8da5cb5b","registerDID(string)":"570810e2","removeIntermediate(address)":"994713af","updateMerkleRoot(string,string)":"813a6f58"},"id":20}