{"abi":[{"type":"constructor","inputs":[],"stateMutability":"nonpayable"},{"type":"function","name":"centralBank","inputs":[],"outputs":[{"name":"","type":"address","internalType":"address"}],"stateMutability":"view"},{"type":"function","name":"initiatePayment","inputs":[{"name":"recipientBank","type":"address","internalType":"address"},{"name":"note","type":"string","internalType":"string"}],"outputs":[],"stateMutability":"payable"},{"type":"event","name":"TransferConfirmed","inputs":[{"name":"senderBank","type":"address","indexed":true,"internalType":"address"},{"name":"recipientBank","type":"address","indexed":true,"internalType":"address"},{"name":"amount","type":"uint256","indexed":false,"internalType":"uint256"},{"name":"note","type":"string","indexed":false,"internalType":"string"}],"anonymous":false},{"type":"event","name":"TransferInitiated","inputs":[{"name":"senderBank","type":"address","indexed":true,"internalType":"address"},{"name":"recipientBank","type":"address","indexed":true,"internalType":"address"},{"name":"amount","type":"uint256","indexed":false,"internalType":"uint256"},{"name":"note","type":"string","indexed":false,"internalType":"string"}],"anonymous":false}],"bytecode":{"object":"0x6080604052348015600f57600080fd5b50600080546001600160a01b0319163317905561032c806100316000396000f3fe6080604052600436106100295760003560e01c80639a4a0fb21461002e578063f7fdc20d1461006a575b600080fd5b34801561003a57600080fd5b5060005461004e906001600160a01b031681565b6040516001600160a01b03909116815260200160405180910390f35b61007d6100783660046101cf565b61007f565b005b600034116100e55760405162461bcd60e51b815260206004820152602960248201527f5472616e7366657220616d6f756e74206d7573742062652067726561746572206044820152687468616e207a65726f60b81b606482015260840160405180910390fd5b6040516001600160a01b038316903480156108fc02916000818181858888f1935050505015801561011a573d6000803e3d6000fd5b50816001600160a01b0316336001600160a01b03167fca5f3156de7a545e43b2d64f40d5d33c56025b48c087b3413a55f01416e2a3f1348460405161016092919061029f565b60405180910390a3816001600160a01b0316336001600160a01b03167f69e0f3c8005af7f13cdd32593f81da184a34271f8a638b519c23aa902163efc334846040516101ad92919061029f565b60405180910390a35050565b634e487b7160e01b600052604160045260246000fd5b600080604083850312156101e257600080fd5b82356001600160a01b03811681146101f957600080fd5b9150602083013567ffffffffffffffff8082111561021657600080fd5b818501915085601f83011261022a57600080fd5b81358181111561023c5761023c6101b9565b604051601f8201601f19908116603f01168101908382118183101715610264576102646101b9565b8160405282815288602084870101111561027d57600080fd5b8260208601602083013760006020848301015280955050505050509250929050565b8281526000602060406020840152835180604085015260005b818110156102d4578581018301518582016060015282016102b8565b506000606082860101526060601f19601f83011685010192505050939250505056fea26469706673582212203913eff00297de558ede4179b32ff89e43e9ea0ccacbe457d5c9acfed2fc15b864736f6c63430008190033","linkReferences":{}},"methodIdentifiers":{"centralBank()":"9a4a0fb2","initiatePayment(address,string)":"f7fdc20d"},"id":20}